:100000000C9446000C9465000C9465000C946500FB
:100010000C9465000C9465000C9465000C946500CC
:100020000C9465000C9465000C9465000C946500BC
:100030000C9465000C9465000C9465000C946500AC
:100040000C9469010C9465000C9465000C94650097
:100050000C9465000C9465000C9465000C9465008C
:100060000C9465000C9465000C9465000C9465007C
:100070000C9465000C9465000C9465000C9465006C
:100080000C9465000C9465000C94650011241FBE4F
:10009000CFEFD0E1DEBFCDBF11E0A0E0B1E0E2EAFA
:1000A000F4E000E00BBF02C007900D92AC30B10746
:1000B000D9F721E0ACE0B1E001C01D92AA31B2074E
:1000C000E1F70E94EA010C944F020C94000087B300
:1000D000876087BB8DB180658DB908951FB8779B08
:1000E000FECF8FB1089587B7816087BF80B78860E2
:1000F00080BF83B7816083BF0895EF92FF920F9313
:100100001F93CF93DF938C01EB019C01ADECBCEC12
:100110000E942C029C013695279536952795369599
:100120002795C901880F991F880F991F820F931F68
:10013000880F991FF801E81BF90BE050FF4F408131
:10014000F0E0E0E0AAE0EA2EF12CE230F105F8F070
:10015000DF01AB5EBE4F4C93E430F105C1F1980175
:10016000ADECBCEC0E942C028C01169507951695FF
:10017000079516950795C801B7010E941802DC0182
:10018000A050BF4F4C913196E230F10508F79E0127
:10019000ADECBCEC0E942C029695879596958795C0
:1001A000969587959C01220F331F220F331F280F2E
:1001B000391F220F331FC21BD30BC050DF4F2881C2
:1001C000DF01AB5EBE4F2C93EC013196DDCFDF91AA
:1001D000CF911F910F91FF90EF9008951F9A1E9855
:1001E000EFE9FFE03197F1F700C000001E9A1F9879
:1001F0001FB8779BFECF9FB1592F5170792F727026
:1002000091FB332730F9E92FE47092FB442740F942
:10021000F92FF87093FB222720F9909111013917DB
:10022000E1F0711120C0552301F1911120C06F5FE1
:10023000309311015093130190911201291701F18C
:10024000FF2399F1EE23E9F1209312014093140169
:1002500080930C0160930D010895A09113015A172A
:1002600039F3772301F35111E3CF913001F361505A
:100270003093110150931301909112012913E0CF93
:1002800030911401431701F3F111DCCFE11114C0D7
:100290002130E1F020E0815020931201E09314011D
:1002A00080930C0160930D010895E11105C020E0D9
:1002B000913089F78F5FF0CFE1E09111ECCF8F5F44
:1002C000EBCF21E0913039F78F5FE6CF20E08F5FF1
:1002D000E3CF1F920F920FB60F9211240BB60F921D
:1002E000CF92DF92EF92FF920F931F932F933F9342
:1002F0004F935F936F937F938F939F93AF93BF932E
:10030000CF93DF93EF93FF93CBB2D8B2EAB2F7B2B9
:1003100060910D0180910C010E94EE00E0910D01B1
:10032000F0E0C0910C01D0E0CE016AE070E00E94E4
:100330001802DC01A050BF4F4C9130E020E00AE0F1
:1003400010E022303105C8F0D901AB5EBE4F4C93AE
:100350002430310501F1CE01B8010E941802EB01F1
:10036000CB01B8010E941802DC01A050BF4F4C9194
:100370002F5F3F4F2230310538F7CF01B8010E947F
:100380001802FC01E050FF4F8081F901EB5EFE4F47
:100390008083FB01EDCFCBBAD8BAEABAF7BAFF91A6
:1003A000EF91DF91CF91BF91AF919F918F917F910D
:1003B0006F915F914F913F912F911F910F91FF90FE
:1003C000EF90DF90CF900F900BBE0F900FBE0F906D
:1003D0001F90189587B7816087BF80B7886080BFFE
:1003E00083B7816083BF87B3876087BB8DB180652A
:1003F0008DB9789487B3806F87BB82B18FEF82B954
:1004000093B193B91E9A94B384BB2FEF18BA2ABB49
:10041000E5E1F1E080E091919BBB88BBAFE9BFE0F3
:100420001197F1F700C00000805F8035A1F7EECF93
:1004300097FB072E16F4009407D077FD09D00E9491
:100440003B0207FC05D03EF4909581959F4F08959F
:10045000709561957F4F0895A29FB001B39FC00131
:10046000A39F700D811D1124911DB29F700D811DE0
:100470001124911D0895AA1BBB1B51E107C0AA1F9F
:10048000BB1FA617B70710F0A61BB70B881F991F35
:100490005A95A9F780959095BC01CD010895F894DF
:0204A000FFCF8C
:0C04A200C0F9A4B0999282F88098FC7F09
:00000001FF
